:020000040800F2
:10000000B004002001010008690F0008230E000859
:10001000490F00086D010008B11100080000000040
:100020000000000000000000000000006D0F00084C
:100030006F010008000000006B0F00086F0F000840
:100040001B0100081B0100081B0100081B01000820
:100050001B0100081B0100081B0100081B01000810
:100060001B0100081B0100081B0100081B01000800
:100070001B0100081B0100081B0100081B010008F0
:100080001B0100081B0100081B0100081B010008E0
:100090001B0100081B0100081B0100081B010008D0
:1000A0001B0100081B0100081B0100081B010008C0
:1000B000CD0F00081B0100081B0100081B010008F0
:1000C0001B0100081B0100081B0100081B010008A0
:1000D0001B0100081B0100081B0100081B01000890
:1000E0001B0100081B0100081B010008DFF80CD0F1
:1000F00000F02AF800480047F1110008B004002081
:100100000648804706480047FEE7FEE7FEE7FEE7B1
:10011000FEE7FEE7FEE7FEE7FEE7FEE7CB0F00089F
:10012000ED000008D2B201E000F8012B491EFBD21D
:1001300070470022F6E710B513460A4604461946F2
:10014000FFF7F0FF204610BD064C074D06E0E068C3
:1001500040F0010394E8070098471034AC42F6D30E
:10016000FFF7C8FF1413000834130008FEE77047B8
:100170000E4886B0816941F01001816180694FF4B9
:10018000005400F010000490002002900120CDE9FE
:1001900000400220064D03906946284600F01CF8F6
:1001A00000222146284600F014F9FEE70010024024
:1001B0000010014070B5044600F010F90546601CBF
:1001C00002D004480078044400F008F9401BA04223
:1001D000FAD370BD000000202DE9F84FDFF8B89188
:1001E0000024A9F1040B23460F2709F1040AABF1FF
:1001F000040EC9E00125A5402A40AA427DD1674EE0
:10020000D1F804C0ACEB0608B44532D014DCBCF124
:10021000030F3AD009DCBCF1000F2AD0BCF1010F6A
:100220001CD0BCF1020F31D11DE0BCF1110F17D071
:10023000BCF1120F2AD119E0B8F5881F19D006DCDD
:10024000B8F5803F15D0B8F5801F1FD111E0B8F583
:10025000001F0ED0B8F5041F18D10AE0CB6815E0D6
:10026000CB681B1D12E0CB6808330FE0CB680C3362
:100270000CE08B682BB1012B4FF0080303D04561D4
:1002800004E0042302E0056100E00023FF2A01D816
:10029000064601E000F104064FEA840501D9A5F104
:1002A0002005D6F8008007FA05FC28EA0C0803FAB6
:1002B00005F548EA0508C6F800804D68ED0062D5EE
:1002C000374DAE6946F00106AE61AD6924F0030614
:1002D00005F001050095334D06EB050CDCF80850E0
:1002E000A607360F07FA06F825EA0805DFF8B880F2
:1002F000404503D14FF0000817E044E0DFF8AC8040
:10030000404502D14FF001080FE0DFF8A4804045DE
:1003100002D14FF0020808E0DFF89880404502D192
:100320004FF0030801E04FF0040808FA06F848EA25
:100330000508CCF808804D68D9F80060ED024D46FC
:1003400001D5164300E096432E604D68DAF8006050
:10035000AD02554601D5164300E096432E604D6828
:10036000DBF80060AD035D4601D5164300E096431F
:100370002E604D68DEF80060ED03754601D516432A
:1003800000E096432E60641C0D682A46E5407FF429
:1003900031AFBDE8F88F00000804014000001110E3
:1003A000001002400000014000080140000C014024
:1003B00000100140001401408068084000D0012076
:1003C0007047C26821EA02030A4043EA0241016120
:1003D00070470AB1016170470904FBE70148806872
:1003E0007047000000000020024881680278114434
:1003F0008160704700000020074810B5016841F097
:1004000010010160032000F067F80F2000F006F8EB
:1004100000F024F8002010BD0020024070B50D4D02
:1004200004464FF47A712878B1FBF0F00A49096864
:10043000B1FBF0F000F0AEFA48B9102C07D2002260
:100440002146501E00F028F800206C6070BD01208D
:1004500070BD0000000000200C0000200C4808B512
:10046000816941F001018161816901F0010100911F
:10047000C16941F08051C161C06900F080500090B5
:100480000448416821F0E06141F00071416008BD1D
:100490000010024000000140F0B40E4B1B680C46F7
:1004A000C3F30223C3F10705042D00D90425191D48
:1004B000072901D2002300E0DB1E012606FA05F120
:1004C000491E214099409E40761E16403143F0BCA3
:1004D00000F06FBE0CED00E0064900F0070208686E
:1004E0004FF6FF03184040EA0220034A1043086019
:1004F000704700000CED00E00000FA052DE9F04720
:100500000F46050061D0434E306800F00700B84246
:1005100009D2306820F0070038433060306800F0BE
:100520000700B84251D128683B4C810712D54007DB
:1005300003D5606840F4E06060602878000703D568
:10054000606840F4605060606068A96820F0F00066
:10055000084360602878C00728D06868012810D058
:100560002168022810D0890700292EDA616821F05D
:10057000030101436160FFF731FF804641F2883992
:100580000DE021688903EFE78901EDE7FFF726FF1A
:10059000A0EB0801494502D90320BDE8F087606857
:1005A000696800F00C00B0EB810FEFD1306800F00B
:1005B0000700B8420BD9306820F00700384330609C
:1005C000306800F00700B84201D00120E5E7287844
:1005D000400705D56068E96820F4E0600843606082
:1005E0002878000706D56068296920F4605040EA41
:1005F000C100606000F018F86168084AC1F3031197
:10060000515CC8400649086006480068FFF706FFCD
:100610000020C2E700200240001002400213000840
:100620000C000020040000200E4A51680E4801F022
:100630000C03042B11D0082B0FD10C48C1F38343BA
:10064000C903C05C0AD55168084AC1F34041921EF3
:10065000515C054A5043B0FBF1F0704704494843F0
:10066000704700000010024000127A00F2120008E9
:1006700000093D002DE9F84F040070D02078C04DEE
:10068000C00749D06868C0F38100012807D06868B6
:10069000C0F38100022809D16868C00306D5286824
:1006A000800339D560680028E7D035E06068B0F590
:1006B000803F0BD010B1B0F5A02F11D0286820F4E6
:1006C00080302860286820F4802002E0286840F408
:1006D00080302860606890B1FFF780FE06460AE02F
:1006E000286840F480202860F0E700BFFFF776FE1E
:1006F000801B642873D828688003F7D50CE0FFF7C7
:100700006DFE064605E000BFFFF768FE801B64280B
:10071000F0D828688003F7D420789A4E80074FF0ED
:1007200001094FF0000839D5686810F00C0F07D0A8
:100730006868C0F38100022809D16868C00306D444
:100740002868800714D52069012808D110E02069A5
:10075000B0B1C6F80090FFF741FE074605E00AE198
:10076000FFF73CFEC01B0228C4D828688007F7D5D5
:100770002868616920F0F80040EAC10028600DE0B7
:10078000C6F80080FFF72AFE074604E0FFF726FEC2
:10079000C01B022823D828688007F7D420780007D8
:1007A0002CD57948A169D9B1C0F80090FFF716FEA1
:1007B000074604E0FFF712FEC01B02280FD8686A44
:1007C0008007F7D571484FF4FA510068B0FBF1F09B
:1007D000009000BF0098411E0091FAD20EE080E028
:1007E000C0F80080FFF7FAFD074604E0FFF7F6FDCA
:1007F000C01B022875D8686A8007F7D420784007A4
:1008000060D5E8690027C00008D4E86940F080504E
:10081000E861E869012700F0805000905C480168B9
:10082000C90513D40168834641F480710160FFF764
:10083000D5FD824606E000BFFFF7D0FDA0EB0A0021
:1008400064284ED8DBF80000C005F5D5E068012823
:100850000AD008B1052813D0286A20F001002862C8
:10086000286A20F0040002E0286A40F001002862B3
:10087000E06841F2883B98B1FFF7B0FD82460BE09B
:10088000286A40F004002862EEE700BFFFF7A6FDEB
:10089000A0EB0A0159455AD8286A8007F6D50CE022
:1008A000FFF79CFD824605E0FFF798FDA0EB0A01EB
:1008B00059454CD8286A8007F6D41FB1E86920F062
:1008C0008050E861E06988B36968C1F38101022959
:1008D00044D00228C6F8608004D0FFF77FFD0446AC
:1008E00038E034E0FFF77AFD074604E0FFF776FDD5
:1008F000C01B02282BD828688001F7D4206AB0F5E5
:10090000803F05D16868A16820F400300843686022
:10091000D4E908010843696821F474110843686048
:10092000C6F86090FFF75AFD044606E025E000BFD8
:10093000FFF754FD001B022809D828688001F7D56D
:100940001BE000BFFFF74AFD001B022802D903206D
:10095000BDE8F88F28688001F4D40EE00128F7D0B4
:100960006868226A00F48031914204D1616A00F41F
:100970007010884201D00120EAE70020E8E700007B
:100980000010024000004242800442420C0000205D
:100990000070004010B5401EB0F1807F01D30120EF
:1009A00010BD4FF0E02460610F21601700F001FCE2
:1009B0000020A06107202061002010BD7047704713
:1009C00070B590F83C20012A26D0012480F83C40E4
:1009D000022280F83D2003685A689D6822F0700664
:1009E0000A6832435A600D4B02689A4208D0B2F14D
:1009F000804F05D00A4B9A4202D00A4B9A4204D14A
:100A0000496825F080031943916080F83D4000213A
:100A100080F83C10084670BD022070BD002C0140DB
:100A2000000400400008004070B504460068B0F1C2
:100A3000804F18D1207F012815D1124D287801262A
:100A400000284FF0000120460ED000F0D4F9A86035
:100A5000002028706E702068016A21F00A0101628E
:100A60002068016A016270BD00F0C5F968602E70EF
:100A70002068016A21F00A0101622068016A41F0E0
:100A80000201EFE7100000202DE9F0410446006864
:100A9000C66805694FF00007A90713D5B10711D53E
:100AA000F91E0161012020772068806980072046B7
:100AB00002D0FFF7B9FF04E000F0A4F8204600F0F0
:100AC00049F92777680716D5700714D521686FF0A4
:100AD00004000861022020772068806910F4407FBC
:100AE000204602D0FFF7A0FF04E000F08BF820467C
:100AF00000F030F92777280715D5300713D521687E
:100B00006FF008000861042020772068C069800722
:100B1000204602D0FFF788FF04E000F073F820467B
:100B200000F018F92777E80616D5F00614D52168E5
:100B30006FF010000861082020772068C06910F469
:100B4000407F204602D0FFF76FFF04E000F05AF824
:100B5000204600F0FFF82777E80708D0F00706D016
:100B600021686FF001000861204600F043F9280673
:100B700008D5300606D521686FF080000861204650
:100B8000FFF71CFF680608D5700606D521686FF0D0
:100B900040000861204600F043F9A8060AD5B006D7
:100BA00008D521686FF0200008612046BDE8F041BB
:100BB000FFF705BFBDE8F08100B585B000210091C9
:100BC00001910291039100680B49884212D10B48B0
:100BD000816941F0080181618069694600F008007F
:100BE00004904FF47070009002200190039004482C
:100BF000FFF7F2FA05B000BD000800400010024007
:100C0000000C0140704770B5044690F83C00002687
:100C10000D4601280FD0012084F83C006AB1042A57
:100C20001DD0082A2FD00C2A3FD00126002084F89E
:100C30003C00304670BD022070BD206800F016FAFE
:100C40002068816941F0080181612068816921F093
:100C500004018161206881692A69114311E02068DB
:100C600000F02CFA2068816941F4006181612068FC
:100C7000816921F480618161206881692A6941EA82
:100C800002218161D2E7206800F044FA2068C1693E
:100C900041F00801C1612068C16921F00401C1610E
:100CA0002068C1692A69114311E0206800F05EFAEA
:100CB0002068C16941F40061C1612068C16921F403
:100CC0008061C1612068C1692A6941EA0221C1616C
:100CD000ACE710B5040003D094F83D0010B107E074
:100CE000012010BD002084F83C00204600F01EF8D2
:100CF000022084F83D00211D206800F06DF90120DC
:100D000084F8460084F83E0084F83F0084F84000F0
:100D100084F8410084F8420084F8430084F84400D9
:100D200084F8450084F83D00002010BD08B5006837
:100D30000649884208D10648C16941F00401C161F1
:100D4000C06900F00400009008BD000000080040E9
:100D5000001002407047000010B50446022249B15D
:100D600004290ED0082913D094F84100012816D088
:100D7000012010BD94F83E000128F9D184F83E20EE
:100D80000FE094F83F000128F2D184F83F2008E0FA
:100D900094F840000128EBD184F8402001E084F869
:100DA00041200122206800F053F90F492068884251
:100DB00003D1426C42F4004242642068884208D069
:100DC000B0F1804F05D00949884202D008498842D5
:100DD00004D1816801F00701062903D0016841F0C0
:100DE00001010160002010BD002C01400004004002
:100DF0000008004070470246002041B1042909D094
:100E000008290AD00C2901D11068006C70471068BD
:100E1000406B70471068806B70471068C06B7047FC
:100E20007047FEE770B586B000241C48009401941A
:100E300002940394816941F020018161816901F08C
:100E400020010491816941F004018161816901F00F
:100E500004010491816941F0080181618069104EAB
:100E600000F008000490002202213046FFF7B1FA9A
:100E700002200125CDE900050320CDE902406946A5
:100E80003046FFF7A9F94FF418408DE83100694664
:100E90000448FFF7A1F906B070BD00000010024041
:100EA000000C01400008014010B58AB000240794EE
:100EB0001C2168460894FFF73CF92248204901604C
:100EC0002321C0E901146321C0E903148021816159
:100ED000FFF7FFFE08B1FFF74BF9079407A9194880
:100EE0000894FFF76DFD08B1FFF742F96020CDE9E6
:100EF000000402940022694612480494FFF783FE1E
:100F000008B1FFF735F9042269460E48FFF77BFE6A
:100F100008B1FFF72DF9082269460A48FFF773FE6A
:100F200008B1FFF725F90C2269460648FFF76BFE6A
:100F300008B1FFF71DF90348FFF73EFE0AB010BDE8
:100F40000008004064000020FEE7000030B5054CBA
:100F500025686863206881632068C2632068036431
:100F600030BD000064000020FEE770477047FFF7C7
:100F70003BBA30B58FB028216846FFF7DAF8142164
:100F80000AA8FFF7D6F801210804CDE900100024D3
:100F9000029402250491CDE907504FF4E010099026
:100FA0006846FFF767FB60B90F20CDE90A056802C4
:100FB000CDE90C4002210AA80E94FFF79FFA002801
:100FC00001D0FFF7D5F80FB030BD70470148FFF7EB
:100FD0005BBD00001C000020F0B50268194B1A4CE4
:100FE0001A4D4FF08047984205D0B84203D0A04236
:100FF00001D0A84203D122F070064A6832439842D9
:1010000005D0B84203D0A04201D0A84203D122F4B7
:101010004074CA6822434C6922F080022243026075
:101020008A68C2620A688262984201D109690163D2
:10103000012141610169C90703D0016921F0010162
:101040000161F0BD002C0140000400400008004098
:1010500010B501F01F030121046A99408C4304621A
:10106000016A9A401143016210BD000030B5036A65
:10107000026A22F0010202624268846924F0730568
:101080000C682C4323F002058B682B430A4DA842C1
:101090000BD123F00805CB6822F440722B434D6935
:1010A00023F0040315438A692A4342608461496836
:1010B0004163036230BD0000002C014030B5026A7C
:1010C000036A23F010030362436884690D6824F403
:1010D000E64444EA05248D6822F0200242EA051223
:1010E0000B4DA8420ED1CD6822F0800242EA0512D3
:1010F0004D6923F4406343EA85038D6922F0400281
:1011000043EA85034360846149688163026230BDBC
:10111000002C014030B5036A026A22F48072026238
:101120004268C46923F4007324F073050C682C43EF
:101130008D6843EA05230C4DA8420ED1CD6823F4F7
:10114000006343EA05234D6922F4405242EA051246
:101150008D6923F4806342EA05124260C4614968E4
:10116000C163036230BD0000002C014030B5046A49
:10117000026A22F4805202624268C3690D6823F455
:10118000E64343EA05238D6824F4005444EA053419
:10119000064DA84204D14D6922F4804242EA8512EC
:1011A0004260C36149680164046230BD002C0140A3
:1011B000FEE70907090E002804DB00F1E02080F8B3
:1011C0000014704700F00F0000F1E02080F8141DBB
:1011D000704702E008C8121F08C1002AFAD1704700
:1011E0007047002001E001C1121F002AFBD17047A7
:1011F00086B0FFF701F9FFF7BCFE3948816941F07D
:101200001001816180694FF4005600F010000490D5
:10121000002002900120CDE900600220314F0390B0
:1012200069463846FEF7D8FFFFF7FCFDFFF73CFEA6
:1012300000212D48FFF790FD04212B48FFF78CFD7E
:1012400008212948FFF788FD0C212748FFF784FD76
:1012500000231A4619461846FFF778FE234CB500BE
:1012600006E031463846FFF7ACF8C820FEF7A2FF8B
:1012700029462046FFF7A0F80128F2D03220FEF7D9
:1012800099FF4FF400684FF4805941462046FFF71C
:1012900093F8054649462046FFF78EF8012D01D008
:1012A0003DB108E0012801D060B104E000233C22F8
:1012B00003E0012804D03C23002200213C2005E06B
:1012C0000023F9E700233C2219461846FFF73EFEAB
:1012D00031463846FFF775F83220FEF76BFFD4E74A
:1012E000001002400010014064000020000801408E
:1012F000010202030405060708090A0B0C0D0E0F74
:1013000010100000000000000000010203040607A6
:101310000809000034130008000000201C00000031
:10132000D2110008501300081C0000209404000093
:10133000E2110008010000001000000000000000A1
:1013400000127A0000000000000000000000000011
:04000005080000ED02
:00000001FF
