:020000040800F2
:10000000B00400200101000807150008F5120008DF
:10001000051500086D0100084B18000800000000DD
:100020000000000000000000000000000B150008A8
:100030006F01000800000000091500080D150008F8
:100040001B0100081B0100081B0100081B01000820
:100050001B0100081B0100081B0100081B01000810
:100060001B0100081B0100081B0100081B01000800
:100070001B0100081B0100081B0100081B010008F0
:100080001B0100081B0100081B0100081B010008E0
:100090001B0100081B0100081B0100081B010008D0
:1000A0001B0100081B0100081B0100081B010008C0
:1000B0006D1500081B0100081B0100081B0100084A
:1000C0001B0100081B0100081B0100081B010008A0
:1000D0001B0100081B0100081B0100081B01000890
:1000E0001B0100081B0100081B010008DFF80CD0F1
:1000F00000F02AF800480047D5180008B004002096
:100100000648804706480047FEE7FEE7FEE7FEE7B1
:10011000FEE7FEE7FEE7FEE7FEE7FEE769150008FB
:10012000ED000008D2B201E000F8012B491EFBD21D
:1001300070470022F6E710B513460A4604461946F2
:10014000FFF7F0FF204610BD064C074D06E0E068C3
:1001500040F0010394E8070098471034AC42F6D30E
:10016000FFF7C8FFAC1B0008CC1B0008FEE7704778
:1001700086B001F0BDFC0E48816941F0100181613B
:1001800080694FF4005400F01000049000200290A9
:1001900003900120CDE90040064D6946284600F055
:1001A0001DF800222146284600F015F9FEE7000060
:1001B000001002400010014070B5044600F010F934
:1001C0000546601C02D004480078044400F008F999
:1001D000401BA042FAD370BD000000202DE9F84F6B
:1001E000DFF8B8910024A9F1040B23460F2709F189
:1001F000040AABF1040EC9E00125A5402A40AA4239
:100200007DD1674ED1F804C0ACEB0608B44532D0BE
:1002100014DCBCF1030F3AD009DCBCF1000F2AD08A
:10022000BCF1010F1CD0BCF1020F31D11DE0BCF1BB
:10023000110F17D0BCF1120F2AD119E0B8F5881FA1
:1002400019D006DCB8F5803F15D0B8F5801F1FD156
:1002500011E0B8F5001F0ED0B8F5041F18D10AE060
:10026000CB6815E0CB681B1D12E0CB6808330FE0AC
:10027000CB680C330CE08B682BB1012B4FF00803DB
:1002800003D0456104E0042302E0056100E000239F
:10029000FF2A01D8064601E000F104064FEA840572
:1002A00001D9A5F12005D6F8008007FA05FC28EA57
:1002B0000C0803FA05F548EA0508C6F800804D6801
:1002C000ED0062D5374DAE6946F00106AE61AD690D
:1002D00024F0030605F001050095334D06EB050CEF
:1002E000DCF80850A607360F07FA06F825EA0805D5
:1002F000DFF8B880404503D14FF0000817E044E034
:10030000DFF8AC80404502D14FF001080FE0DFF884
:10031000A480404502D14FF0020808E0DFF8988041
:10032000404502D14FF0030801E04FF0040808FAFD
:1003300006F848EA0508CCF808804D68D9F800604E
:10034000ED024D4601D5164300E096432E604D6800
:10035000DAF80060AD02554601D5164300E0964339
:100360002E604D68DBF80060AD035D4601D5164395
:1003700000E096432E604D68DEF80060ED037546A0
:1003800001D5164300E096432E60641C0D682A4692
:10039000E5407FF431AFBDE8F88F0000080401406C
:1003A0000000111000100240000001400008014050
:1003B000000C01400010014000140140806808401A
:1003C00000D001207047C26821EA02030A4043EAD4
:1003D0000241016170470AB1016170470904FBE7FE
:1003E00001488068704700000000002002488168D2
:1003F000027811448160704700000020074810B562
:10040000016841F010010160032000F075F80F2031
:1004100000F006F800F024F8002010BD0020024093
:1004200070B50D4D04464FF47A712878B1FBF0F0A9
:100430000A490968B1FBF0F000F0BCFA48B9102C89
:1004400007D200222146501E00F036F800206C60D2
:1004500070BD012070BD0000000000200C000020D5
:100460000C4808B5816941F001018161816901F0A1
:1004700001010091C16941F08051C161C06900F082
:10048000805000900448416821F0E06141F0007123
:10049000416008BD0010024000000140002809DB57
:1004A00000F01F02012191404009800000F1E0208E
:1004B000C0F8001170470000F0B40E4B1B680C46EA
:1004C000C3F30223C3F10705042D00D90425191D28
:1004D000072901D2002300E0DB1E012606FA05F100
:1004E000491E214099409E40761E16403143F0BC83
:1004F00001F0ACB90CED00E0064900F00702086815
:100500004FF6FF03184040EA0220034A10430860F8
:10051000704700000CED00E00000FA052DE9F047FF
:100520000F46050061D0434E306800F00700B84226
:1005300009D2306820F0070038433060306800F09E
:100540000700B84251D128683B4C810712D54007BB
:1005500003D5606840F4E06060602878000703D548
:10056000606840F4605060606068A96820F0F00046
:10057000084360602878C00728D06868012810D038
:100580002168022810D0890700292EDA616821F03D
:10059000030101436160FFF723FF804641F2883980
:1005A0000DE021688903EFE78901EDE7FFF718FF08
:1005B000A0EB0801494502D90320BDE8F087606837
:1005C000696800F00C00B0EB810FEFD1306800F0EB
:1005D0000700B8420BD9306820F00700384330607C
:1005E000306800F00700B84201D00120E5E7287824
:1005F000400705D56068E96820F4E0600843606062
:100600002878000706D56068296920F4605040EA20
:10061000C100606000F018F86168084AC1F3031176
:10062000515CC8400649086006480068FFF7F8FEBC
:100630000020C2E700200240001002409A1B000880
:100640000C000020040000200E4A51680E4801F002
:100650000C03042B11D0082B0FD10C48C1F383439A
:10066000C903C05C0AD55168084AC1F34041921ED3
:10067000515C054A5043B0FBF1F0704704494843D0
:10068000704700000010024000127A008A1B000828
:1006900000093D002DE9F84F040070D02078C04DCE
:1006A000C00749D06868C0F38100012807D0686896
:1006B000C0F38100022809D16868C00306D5286804
:1006C000800339D560680028E7D035E06068B0F570
:1006D000803F0BD010B1B0F5A02F11D0286820F4C6
:1006E00080302860286820F4802002E0286840F4E8
:1006F00080302860606890B1FFF772FE06460AE01D
:10070000286840F480202860F0E700BFFFF768FE0B
:10071000801B642873D828688003F7D50CE0FFF7A6
:100720005FFE064605E000BFFFF75AFE801B642807
:10073000F0D828688003F7D420789A4E80074FF0CD
:1007400001094FF0000839D5686810F00C0F07D088
:100750006868C0F38100022809D16868C00306D424
:100760002868800714D52069012808D110E0206985
:10077000B0B1C6F80090FFF733FE074605E00AE186
:10078000FFF72EFEC01B0228C4D828688007F7D5C3
:100790002868616920F0F80040EAC10028600DE097
:1007A000C6F80080FFF71CFE074604E0FFF718FEBE
:1007B000C01B022823D828688007F7D420780007B8
:1007C0002CD57948A169D9B1C0F80090FFF708FE8F
:1007D000074604E0FFF704FEC01B02280FD8686A32
:1007E0008007F7D571484FF4FA510068B0FBF1F07B
:1007F000009000BF0098411E0091FAD20EE080E008
:10080000C0F80080FFF7ECFD074604E0FFF7E8FDC5
:10081000C01B022875D8686A8007F7D42078400783
:1008200060D5E8690027C00008D4E86940F080502E
:10083000E861E869012700F0805000905C48016899
:10084000C90513D40168834641F480710160FFF744
:10085000C7FD824606E000BFFFF7C2FDA0EB0A001D
:1008600064284ED8DBF80000C005F5D5E068012803
:100870000AD008B1052813D0286A20F001002862A8
:10088000286A20F0040002E0286A40F00100286293
:10089000E06841F2883B98B1FFF7A2FD82460BE089
:1008A000286A40F004002862EEE700BFFFF798FDD9
:1008B000A0EB0A0159455AD8286A8007F6D50CE002
:1008C000FFF78EFD824605E0FFF78AFDA0EB0A01E7
:1008D00059454CD8286A8007F6D41FB1E86920F042
:1008E0008050E861E06988B36968C1F38101022939
:1008F00044D00228C6F8608004D0FFF771FD04469A
:1009000038E034E0FFF76CFD074604E0FFF768FDD0
:10091000C01B02282BD828688001F7D4206AB0F5C4
:10092000803F05D16868A16820F400300843686002
:10093000D4E908010843696821F474110843686028
:10094000C6F86090FFF74CFD044606E025E000BFC6
:10095000FFF746FD001B022809D828688001F7D55B
:100960001BE000BFFFF73CFD001B022802D903205B
:10097000BDE8F88F28688001F4D40EE00128F7D094
:100980006868226A00F48031914204D1616A00F4FF
:100990007010884201D00120EAE70020E8E700005B
:1009A0000010024000004242800442420C0000203D
:1009B0000070004010B5401EB0F1807F01D30120CF
:1009C00010BD4FF0E02460610F21601700F03EFF82
:1009D0000020A06107202061002010BD70477047F3
:1009E00070B590F83C20012A26D0012480F83C40C4
:1009F000022280F83D2003685A689D6822F0700644
:100A00000A6832435A600D4B02689A4208D0B2F12C
:100A1000804F05D00A4B9A4202D00A4B9A4204D129
:100A2000496825F080031943916080F83D4000211A
:100A300080F83C10084670BD022070BD002C0140BB
:100A4000000400400008004010B5040003D094F8F2
:100A50003D0010B107E0012010BD002084F83C00EB
:100A6000204600F01FF8022084F83D00211D206878
:100A700000F082FD012084F8460084F83E0084F8EE
:100A80003F0084F8400084F8410084F8420084F874
:100A9000430084F8440084F8450084F83D000020B9
:100AA00010BD000000B585B00021009101910291B8
:100AB00003910068B0F1804F1ED11048C16941F028
:100AC0000101C161C16901F001010491816941F035
:100AD000040181618069694600F0040004900120EE
:100AE00000900748FFF77AFB002201211C20FFF746
:100AF000E3FC1C20FFF7D2FC05B000BD0010024053
:100B00000008014070B5044690F83C00002501281B
:100B100017D0012684F83C60022084F83D0020684C
:100B2000826822F0770222F47F42826008685028AF
:100B300038D00DDC20284FD005DC90B3102811D11F
:100B40004AE0022070BD302846D040280AD13BE060
:100B500060282FD070280DD0B0F5805F03D0B0F59D
:100B6000005F12D0012584F83D60002084F83C002D
:100B7000284670BDCB68D1E90121206800F045FD11
:100B80002068816841F0770109E0CB68D1E9012153
:100B9000206800F03AFD2068816841F4804181605E
:100BA000E1E719E0CA684968206800F0E3FD5021D8
:100BB000206806E0CA684968206800F019FE6021D4
:100BC000206800F02CFDCEE7CA684968206800F074
:100BD000D1FD40212068F4E7226801461046F0E785
:100BE00070B504460068B0F1804F18D1207F01280D
:100BF00015D1124D2878012600284FF0000120461B
:100C00000ED000F006FBA860002028706E702068EF
:100C1000016A21F00A0101622068016A016270BD67
:100C200000F0F7FA68602E702068016A21F00A016E
:100C300001622068016A41F00201EFE71000002024
:100C40002DE9F041054690F83C0000260C460128AD
:100C500010D0012085F83C0072B1042A1CD0082A6B
:100C60002CD00C2A50D00126002085F83C003046BC
:100C7000BDE8F0810220FBE7D4E90012E3682868B0
:100C800000F08AFD2868816921F00C0181612868E3
:100C90008169A26811430FE0D4E90012E368286873
:100CA00000F0B8FD2868816921F4406181612868FD
:100CB0008169A26841EA02218161D5E72868D4E907
:100CC000002C277B036A016A21F480710162C169EB
:100CD00023F4007321F0030141EA0C0121F0F00C30
:100CE00039074FF400774CEA116107EA02221A43F0
:100CF000C16102622868C16921F00C01C1612868E4
:100D0000C169A26811432BE02868D4E90021E76893
:100D1000036AD0F820C02CF4805CC0F820C0D0F862
:100D20001CC023F400532CF4407C4CEA012121F434
:100D3000704C4FF6FF7101EA07314FF4005741EA5A
:100D40000C0107EA02321A43C16102622868C169D4
:100D500021F44061C1612868C169A26841EA0221A9
:100D6000C16181E710B5040003D094F83D0010B1D3
:100D700007E0012010BD002084F83C00204600F070
:100D80001EF8022084F83D00211D206800F0F4FBCD
:100D9000012084F8460084F83E0084F83F0084F87F
:100DA000400084F8410084F8420084F8430084F84D
:100DB000440084F8450084F83D00002010BD7047D1
:100DC00030B50446002551B104290DD0082910D0B2
:100DD00094F8410094F84520012811D10EE094F8D0
:100DE0003E0094F84220F7E794F83F0094F843203F
:100DF000F2E794F8400094F84420EDE7012A01D08E
:100E0000012030BD022059B1042912D0082919D07F
:100E100084F8410084F845000C2938D0012534E0DD
:100E200084F83E0084F842002068C26842F0020262
:100E300010E084F83F0084F843002068C26842F064
:100E4000040207E084F8400084F844002068C26887
:100E500042F00802C2600122206800F0C9FB0E497E
:100E60002068884208D0B0F1804F05D00B498842F5
:100E700002D00B49884204D1816801F0070106299C
:100E800003D0016841F001010160284630BD2068AF
:100E9000C26842F01002DDE7002C0140000400406F
:100EA000000800402DE9F04104460068C668056965
:100EB0004FF00007A90713D5B10711D5F91E01613D
:100EC00001202077206880698007204602D0FFF744
:100ED00087FE04E000F0A4F8204600F049F92777E7
:100EE000680716D5700714D521686FF004000861F3
:100EF000022020772068806910F4407F204602D0CD
:100F0000FFF76EFE04E000F08BF8204600F030F9A9
:100F10002777280715D5300713D521686FF008000B
:100F20000861042020772068C0698007204602D02D
:100F3000FFF756FE04E000F073F8204600F018F9C1
:100F40002777E80616D5F00614D521686FF0100053
:100F50000861082020772068C06910F4407F20468F
:100F600002D0FFF73DFE04E000F05AF8204600F002
:100F7000FFF82777E80708D0F00706D021686FF060
:100F800001000861204600F043F9280608D5300624
:100F900006D521686FF0800008612046FFF71EFD2E
:100FA000680608D5700606D521686FF04000086114
:100FB000204600F043F9A8060AD5B00608D52168F6
:100FC0006FF0200008612046BDE8F041FFF707BD43
:100FD000BDE8F08100B585B000210091019102913A
:100FE000039100680B49884212D10B48816941F096
:100FF000080181618069694600F0080004904FF49F
:10100000707000900220019003900448FFF7E6F80A
:1010100005B000BD0008004000100240000C014077
:10102000704770B5044690F83C0000260D46012834
:101030000FD0012084F83C006AB1042A1DD0082A90
:101040002FD00C2A3FD00126002084F83C003046E7
:1010500070BD022070BD206800F0EAFA2068816946
:1010600041F0080181612068816921F004018161FA
:10107000206881692A69114311E0206800F000FBB3
:101080002068816941F4006181612068816921F4EF
:1010900080618161206881692A6941EA0221816158
:1010A000D2E7206800F018FB2068C16941F0080110
:1010B000C1612068C16921F00401C1612068C16972
:1010C0002A69114311E0206800F032FB2068C169F1
:1010D00041F40061C1612068C16921F48061C1618E
:1010E0002068C1692A6941EA0221C161ACE710B5F3
:1010F000040003D094F83D0010B107E0012010BDBA
:10110000002084F83C00204600F01EF8022084F8FD
:101110003D00211D206800F02FFA012084F84600D0
:1011200084F83E0084F83F0084F8400084F84100D1
:1011300084F8420084F8430084F8440084F84500B1
:1011400084F83D00002010BD08B5006806498842BB
:1011500008D10648C16941F00401C161C06900F0CD
:101160000400009008BD000000080040001002408C
:101170007047000010B50446022249B104290ED080
:10118000082913D094F84100012816D0012010BD81
:1011900094F83E000128F9D184F83E200FE094F83D
:1011A0003F000128F2D184F83F2008E094F8400085
:1011B0000128EBD184F8402001E084F8412001228D
:1011C000206800F015FA0F492068884203D1426C6C
:1011D00042F4004242642068884208D0B0F1804F57
:1011E00005D00949884202D00849884204D1816863
:1011F00001F00701062903D0016841F001010160F7
:10120000002010BD002C01400004004000080040F8
:1012100070470246002041B1042909D008290AD0AC
:101220000C2901D11068006C70471068406B704742
:101230001068806B70471068C06B70477047000083
:1012400070B5264C00202070607025490A685062F5
:101250000868026A22F00A0202620868016A0162F2
:10126000204D012202212846FFF7B5F81E484268AA
:101270001E491F4B0968B1FBF3F1C1EB0111436833
:101280009B1A8B42FBD3002202212846FFF7A3F8CA
:10129000FFF7A6F8054607E0FFF7A2F8401B28284D
:1012A00002D94FF0FF3070BD60780028F4D0A068FC
:1012B0006168884203D3A0686168401A06E06068EC
:1012C0004FF6FF71081AA1680844401C40F2B36150
:1012D000484342F21071B0FBF1F070BD10000020E5
:1012E0001C000020000C0140001000E00C00002059
:1012F00040420F00FEE70000104810B5016841F0C1
:10130000807101600E4800214160016841F00101D7
:101310000160002202210B48FFF75DF80A480168CE
:101320000A6A22F00A020A620068016A0162BDE8E4
:10133000104000210448FFF743BD0000FCED00E031
:10134000001000E0000C01401C00002070B586B0C9
:1013500000241C480094019402940394816941F094
:1013600020018161816901F020010491816941F0CE
:1013700004018161816901F004010491816941F0F6
:10138000080181618069104E00F00800049000227D
:1013900002213046FFF71FF802200125CDE90005A4
:1013A0000320CDE9024069463046FEF717FF4FF4AF
:1013B00018408DE8310069460448FEF70FFF06B07B
:1013C00070BD000000100240000C01400008014008
:1013D00010B58AB00024224804940594069407941A
:1013E000089409940094019402944FF0804103946E
:1013F00001604721C0E901144FF6FF71C0E90314F1
:101400008461FFF721FB08B1FEF7B2FE4FF4805074
:10141000049004A91248FFF775FB08B1FEF7A8FE77
:101420000F48FFF79FFC08B1FEF7A2FE089408A939
:101430000B480994FFF7D4FA08B1FEF799FE012092
:10144000CDE9004002940022694605480394FFF765
:10145000F7FB002801D0FEF78BFE0AB010BD00009C
:101460001C00002010B58AB0002407941C21684697
:101470000894FEF75EFE2248204901602321C0E95E
:1014800001146321C0E9031480218161FFF72FFE5D
:1014900008B1FEF76DFE079407A919480894FFF7F5
:1014A0009FFA08B1FEF764FE6020CDE900040294C3
:1014B0000022694612480494FFF7B3FD08B1FEF715
:1014C00057FE042269460E48FFF7ABFD08B1FEF750
:1014D0004FFE082269460A48FFF7A3FD08B1FEF750
:1014E00047FE0C2269460648FFF79BFD08B1FEF750
:1014F0003FFE0348FFF76EFD0AB010BD0008004034
:1015000064000020FEE7FEE770477047FEF76EBFFD
:1015100030B58FB028216846FEF70BFE14210AA8CB
:10152000FEF707FE01210804CDE900100024029413
:1015300002250491CDE907504FF4E0100990684668
:10154000FFF7A8F860B90F20CDE90A056802CDE9D8
:101550000C4002210AA80E94FEF7E0FF002801D0FB
:10156000FEF706FE0FB030BD704700000148FFF7E0
:1015700099BC00001C000020F0B50268194B1A4C01
:101580001A4D4FF08047984205D0B84203D0A04290
:1015900001D0A84203D122F070064A683243984233
:1015A00005D0B84203D0A04201D0A84203D122F412
:1015B0004074CA6822434C6922F0800222430260D0
:1015C0008A68C2620A688262984201D1096901632D
:1015D000012141610169C90703D0016921F00101BD
:1015E0000161F0BD002C01400004004000080040F3
:1015F00010B501F01F030121046A99408C43046275
:10160000016A9A401143016210BD10B5846842EA34
:10161000032224F47F440A432243826010BD82687F
:1016200022F070020A4342F0070181607047000017
:1016300030B5036A026A22F00102026242688469DC
:1016400024F073050C682C4323F002058B682B43B0
:101650000A4DA8420BD123F00805CB6822F4407252
:101660002B434D6923F0040315438A692A434260E2
:10167000846149684163036230BD0000002C014071
:1016800030B5026A036A23F0100303624368846979
:101690000D6824F4E64444EA05248D6822F0200213
:1016A00042EA05120B4DA8420ED1CD6822F080020D
:1016B00042EA05124D6923F4406343EA85038D69CC
:1016C00022F0400243EA85034360846149688163F4
:1016D000026230BD002C014030B5036A026A22F478
:1016E000807202624268C46923F4007324F07305B7
:1016F0000C682C438D6843EA05230C4DA8420ED19B
:10170000CD6823F4006343EA05234D6922F4405277
:1017100042EA05128D6923F4806342EA05124260B1
:10172000C4614968C163036230BD0000002C014000
:1017300030B5046A026A22F4805202624268C369C8
:101740000D6823F4E64343EA05238D6824F400542E
:1017500044EA0534064DA84204D14D6922F4804282
:1017600042EA85124260C36149680164046230BD87
:10177000002C014010B5036A046A24F001040462DD
:10178000846924F0F00444EA021423F00A020A43B4
:101790008461026210BD000070B5056A046A24F01D
:1017A0000104046284690F4EB04208D0B0F1804F4A
:1017B00005D00D4EB04202D00C4EB04203D124F001
:1017C0000304144301E044F001041A0724F0F00478
:1017D00044EA126225F00A0301F00A01194382610A
:1017E000016270BD002C0140000400400008004070
:1017F00010B5036A046A24F010040462846923F0BB
:10180000A00324F4704444EA023243EA01118261E5
:10181000016210BD30B5046A056A25F01005056245
:10182000856925F4407545EA022222F470454FF699
:10183000FF7202EA033224F0A0032A43A02404EA40
:10184000011119438261016230BDFEE70907090EEB
:10185000002804DB00F1E02080F80014704700F05D
:101860000F0000F1E02080F8141D704702E008C866
:10187000121F08C1002AFAD170477047002001E00A
:1018800001C1121F002AFBD1704710B504463C214C
:10189000084600F001F94FF44870FEF78DFC00F0A7
:1018A00027F96420FEF788FC204600F02FF93C2140
:1018B000084600F0F1F840F24C40FEF77DFC00F0E5
:1018C00017F99620FEF778FC2046BDE8104000F09E
:1018D0001DB900008CB0FEF791FDFFF719FEFFF770
:1018E00035FDFFF775FDFFF7BDFD6748816941F0E4
:1018F0001001816180694FF4005400F010000090E5
:10190000002004900120CDE9024002205F4D0590A7
:1019100002A92846FEF762FC012221462846FEF76E
:101920005AFD00215A48FFF725FC04215848FFF7CB
:1019300021FC08215648FFF71DFC0C215448FFF7F5
:1019400019FC00F0D5F8FFF7D7FC524EA70006E0CF
:1019500021462846FEF737FDC820FEF72DFC394604
:101960003046FEF72BFD0128F2D000222146284602
:10197000FEF731FD4FF49670FEF71EFC4FF00008A5
:101980004446C2464546B1464FF4006B4FF4805181
:101990004E464846FEF712FDA8B10027594630468C
:1019A000FEF70CFD88B10026FFF74AFC7DB13C2113
:1019B000084600F071F8002F5FD0002E5DD00025A2
:1019C0002C46A04659E00127E8E70126ECE7401E37
:1019D000632815D200F08CF86420FEF7EDFB3C2064
:1019E00000F078F840F2DC50FEF7E6FB00F080F8FB
:1019F000C820FEF7E1FB00244FF0010AA046C5E72E
:101A00000FB1F6B923E0E6B1002408F10108B8F1FE
:101A1000070F13DBBAF1000F05D0A2460125D0460F
:101A20003C21084610E000F063F86420FEF7C4FB98
:101A30000120FFF72AFF4FF000081EE03421442068
:101A400002E00024A046EBE700F026F815E0641C55
:101A50004FF00008072C14DBBAF1000F03D0C24688
:101A600001255446DCE700F043F86420FEF7A4FBB0
:101A70004FF0FF30FFF709FF00241E20FEF79CFB0C
:101A800084E744213420DFE70010024000100140C9
:101A9000640000200008014010B5002801DA002091
:101AA00002E0632800DD6320002901DA002102E062
:101AB000632900DD6321064A00231468A3631468C8
:101AC0002364136880B2586388B21168C86310BD7C
:101AD00064000020054900220B689A630B68DA63F2
:101AE0000A685063096808647047000064000020B9
:101AF0000548002102685163026891630268D1635E
:101B00000068016470470000640000202DE9F04186
:101B1000002803DD2D20FFF7DDFF0AE018482D2106
:101B2000002203685A6303681A64026891630068BC
:101B3000C163FA20FEF740FBFEF752FC114D04464C
:101B40004FF40068AF1440F698060CE04146284672
:101B5000FEF734FC20B939462846FEF72FFC38B191
:101B60000A20FEF729FBFEF73BFC001BB042EDD339
:101B7000FFF7BEFFBDE8F0419620FEF71DBB000059
:101B8000640000200008014001020203040506076A
:101B900008090A0B0C0D0E0F1010000000000000C9
:101BA000000001020304060708090000CC1B00081E
:101BB000000000201C0000006C180008E81B000852
:101BC0001C000020940400007C18000801000000A4
:101BD000100000000000000000127A000000000069
:081BE0000000000000000000FD
:04000005080000ED02
:00000001FF
